:020000040800F2
:10000000000005209546000825070008270700087E
:10001000290700082B0700082D0700080000000032
:10002000000000000000000000000000A12C0008FB
:100030002F07000800000000412D0008EB290008F0
:10004000E5460008E5460008E5460008E5460008E4
:10005000E5460008E5460008E5460008E5460008D4
:10006000E5460008E5460008E5460008E5460008C4
:10007000E5460008E5460008E5460008E5460008B4
:10008000E5460008E5460008E5460008E5460008A4
:10009000E5460008E5460008E5460008E546000894
:1000A000E5460008E5460008E5460008E546000884
:1000B000E5460008E5460008E5460008E546000874
:1000C000E5460008E5460008E5460008E546000864
:1000D000E5460008E5460008E5460008E546000854
:1000E000E5460008E5460008E5460008E546000844
:1000F000E5460008E5460008E5460008E546000834
:10010000E5460008E5460008E5460008E546000823
:10011000E5460008E546000831070008E546000806
:10012000E5460008E5460008E5460008E546000803
:10013000E5460008E5460008E5460008E5460008F3
:10014000E5460008E5460008E5460008E5460008E3
:10015000E5460008E5460008E5460008E5460008D3
:10016000E5460008E5460008E5460008E5460008C3
:10017000E5460008E5460008E546000800000000E6
:10018000E5460008E5460008E5460008E5460008A3
:10019000E5460008E5460008E5460008E546000893
:1001A000E5460008E54600080000000000000000E9
:1001B00053B94AB9002908BF00281CBF4FF0FF31CE
:1001C0004FF0FF3000F00CB8ADF1080C6DE904CE33
:1001D00004F0C4FADDF804E0DDE9022304B070475E
:1001E000704700BF10B5054C237833B9044B13B1E9
:1001F0000448AFF300800123237010BD10000020DD
:1002000000000000184A000808B5034B1BB1034961
:100210000348AFF3008008BD000000001400002078
:10022000184A0008F0B58BB000250595069507958E
:1002300008950995324CE36C43F00403E364E36CE6
:1002400003F004030093009BE36C43F08003E3643A
:10025000E36C03F080030193019BE36C43F0020322
:10026000E364E36C03F002030293029BE36C43F04C
:100270004003E364E36C03F040030393039B00F04B
:1002800015FDE36C43F00103E364E36C03F0010349
:100290000493049B1B4F2A464FF48141384600F0DB
:1002A000EFFB194C2A464021204600F0E9FB4FF4B1
:1002B000005305934FF488130693079505A9134837
:1002C00000F0E6FA4FF48143059301260696079560
:1002D000089505A9384600F0DBFA2023059306951A
:1002E000079505A9204600F0D3FA4023059306960A
:1002F0000795089505A9204600F0CAFA0BB0F0BD95
:10030000001002400004004800180048000800489F
:1003100008B5012002F002FCFBE708B5012002F05D
:10032000FDFBFBE708B5012002F0F8FBFBE700004E
:1003300008B50268034B9A4200D008BD00F01AFAD3
:10034000FBE700BF0010004072B6FEE708B50B489F
:100350000B4B03600B4B43604FF0805383600023D3
:10036000C36003610C22426183610362436202F055
:1003700076F900B908BDFFF7E7FF00BF440500208C
:10038000008000402433030008B50B484FF0A04321
:100390000360062343600223C36083610123C361BA
:1003A00000220262426283620263C36200F06DFB5C
:1003B00000B908BDFFF7C8FF3800002000B597B0AE
:1003C0004422002105A804F08EF900230093019334
:1003D0000293039304934FF4007000F017FC00287D
:1003E00033D100F003FC1C4AD2F8903023F01803FC
:1003F000C2F8903014230593012307930B93002236
:100400000C9260220D9202220F92109311934723B7
:100410001293139214920623159305A800F0F0FC92
:10042000A8B90F23009303230193002302934FF4F1
:100430008062039204930221684601F01FF840B9DC
:1004400001F0BAFC17B05DF804FBFFF77DFFFFF782
:100450007BFFFFF779FF00BF0010024008B500F0F6
:1004600079F9FFF7ABFFFFF7DDFEFFF76FFFFFF74F
:100470008BFF02F0C7FA0C4A00210C4802F0F0FA98
:100480000B4B18600B4A00210B4802F0E9FA0B4BAA
:1004900018600B4A00210B4802F0E2FA0A4B186080
:1004A00002F0C2FAFEE700BF944A000811030008F8
:1004B00034000020704A00081B03000830000020B0
:1004C0004C4A0008250300082C00002000B583B02A
:1004D0000D4B1A6E42F001021A661A6E02F001020A
:1004E0000092009A9A6D42F080529A659B6D03F0DB
:1004F00080530193019B00220F216FF0010000F057
:10050000B3F903B05DF804FB0010024010B5AAB0C7
:1005100004460021259126912791289129918C222A
:1005200002A804F0E0F82268194B9A4201D02AB0E0
:1005300010BD2023029302A801F006FA20BB154B40
:10054000DA6D42F00102DA65DA6D02F00102009222
:10055000009ADA6C42F04002DA64DB6C03F040038C
:100560000193019B00F0A2FB4FF4C073259302237B
:10057000269300232793032328930823299325A94F
:10058000054800F085F9D2E7FFF7DEFED7E700BFA8
:1005900000800040001002400018004830B5ADB0A7
:1005A000044600212791289129912A912B918C2290
:1005B00004A804F098F82368B3F1A04F01D02DB03F
:1005C00030BD4FF4005304934FF080632093012318
:1005D00005930693182307930223089309930A931C
:1005E0004FF480130B9304A801F0AEF9002840D11A
:1005F000234CE36C43F00103E364E36C03F0010379
:100600000193019B4FF4E85327930223289300257D
:10061000299503232A930A232B9327A94FF090406F
:1006200000F036F94FF4007327932895299527A9F0
:100630004FF0904000F02CF9E36C43F48053E364F6
:10064000E36C03F480530293029BA36D13F0805F6D
:1006500012D1A36D43F08053A365A36D03F08053C3
:100660000393039B00F01AFBA36D23F08053A36553
:10067000A5E7FFF769FEBBE700F010FB9FE700BFAF
:100680000010024030B589B00446214B9A6D42F00B
:1006900010029A659B6D03F010030193019B02A960
:1006A00003A800F0D9FF069BCBB900F0B1FF0346C9
:1006B000184AA2FB03239B0C013B1748174A026010
:1006C00040F2E732C26043600023036183608361CC
:1006D00001F0F8FC054630B1284609B030BD00F005
:1006E00097FF4300E4E70C4801F070FB0546002843
:1006F000F2D1362000F0C8F80F2C01D90125EBE724
:1007000000222146362000F0AFF8054B1C60E3E7DD
:100710000010024083DE1B43C8050020001000408B
:1007200008000020FEE7FEE7FEE7FEE7FEE7704771
:1007300008B5024801F094FB08BD00BFC8050020C1
:10074000034AD2F8883043F47003C2F88830704707
:1007500000ED00E010B5032000F074F80F20FFF763
:1007600091FF10B10124204610BD0446FFF7AEFEF4
:10077000F9E70000034B1B78034A11680B44136030
:10078000704700BF0400002014060020014B1868C9
:10079000704700BF1406002038B50446FFF7F6FF87
:1007A0000546B4F1FF3F02D0044B1B781C44FFF711
:1007B000EDFF401BA042FAD338BD00BF040000206B
:1007C000002807DB00F01F02400901239340024A82
:1007D00042F82030704700BF00E100E0002808DB4D
:1007E0000901C9B200F1604000F5614080F80013D2
:1007F000704700F00F000901C9B2014B195470474E
:1008000014ED00E000B500F00700C0F1070CBCF1EA
:10081000040F28BF4FF0040C031D062B0FD9C31E75
:100820004FF0FF3E0EFA0CF021EA000199400EFA5B
:1008300003FE22EA0E0241EA02005DF804FB0023F7
:10084000EEE70000074AD36823F4E0631B041B0CA7
:10085000000200F4E060034343F0BF6343F400335D
:10086000D360704700ED00E010B50446054BD86832
:10087000C0F30220FFF7C6FF01462046FFF7AEFF98
:1008800010BD00BF00ED00E008B5FFF799FF08BDFF
:10089000F0B583B0002362E085685E000324B440B5
:1008A00025EA0405CC68B4402C438460456825EAF9
:1008B0000C054C68C4F300149C402C43446060E079
:1008C000DD08083550F8254003F0070C4FEA8C0C82
:1008D0004FF00F0E0EFA0CFE24EA0E0E0C6904FA0D
:1008E0000CF444EA0E0440F8254061E0072400E0DF
:1008F000002404FA0EF42C430CF1020C5C4D45F874
:100900002C405C4CA568D44325EA02064F6817F4D6
:10091000801F01D042EA0506564DAE60ED6804EA3C
:1009200005064F6817F4001F01D042EA0506514D35
:10093000EE606D6804EA05064F6817F4003F01D0C9
:1009400042EA05064B4D6E602D682C404E6816F449
:10095000803F01D042EA0504464A146001330A6828
:1009600032FA03F400F081804FF0010C0CFA03FC22
:100970001CEA0202F2D04C6804F00304013C012C92
:100980008AD94C6804F00304032C0CD0C4685D00C1
:100990004FF0030C0CFA05FC24EA0C0C8C68AC40FC
:1009A00044EA0C04C4604C6804F00304022C87D0B1
:1009B00004684FEA430E4FF0030C0CFA0EFC24EAD5
:1009C0000C0C4C6804F0030404FA0EF444EA0C0422
:1009D00004604C6814F4403FC0D0274C256E45F0AD
:1009E00001052566246E04F001040194019C4FEA80
:1009F000930C0CF102051E4C54F8255003F0030E25
:100A00004FEA8E0E0F2404FA0EF425EA0405B0F125
:100A1000904F3FF46DAF194CA0421AD004F580649A
:100A2000A04218D004F58064A04216D004F580647A
:100A3000A04214D004F58064A04212D004F5806472
:100A4000A04210D004F58064A0423FF44FAF0824C8
:100A50004FE701244DE702244BE7032449E7042430
:100A600047E7052445E7062443E703B0F0BD00BF90
:100A70000000014000040140001002400004004852
:100A80000AB1816170478162704770B58AB00028F1
:100A900000F097800546046890F8BD343BB303230B
:100AA00085F8BD34E36B13F4807F01D100232B6103
:100AB000286801F049FE2C4654F8106BEC460FCC28
:100AC000ACE80F000FCCACE80F0094E803008CE812
:100AD00003002B1D0ECB304601F01AFE044658B120
:100AE000022385F8BD34012420460AB070BD80F889
:100AF000BC34FFF753FDD2E70021286801F044FF22
:100B0000234616E003EBC30205EB8202012182F8C3
:100B10003D1082F83C30A2F84430002182F84010A9
:100B20009164D16403EBC30205EB8202516501338A
:100B3000DBB269688B42E5D316E004EBC40305EB36
:100B40008303002283F87D2283F87C4283F880228D
:100B5000C3F88822C3F88C2204EBC40305EB83039B
:100B6000C3F894220134E4B2A142E6D82C4654F8EA
:100B7000106BEC460FCCACE80F000FCCACE80F00CC
:100B800094E803008CE803002B1D0ECB304601F0E7
:100B900037FE044660B9002385F83830012385F814
:100BA000BD346B6A012B08D0286801F0DBFE9BE79F
:100BB000022385F8BD34012496E7284600F003F8A7
:100BC000F2E7012490E7034602680121C0F800150E
:100BD000002083F8F404936943F000639361536D3C
:100BE00043F0805343F0030353657047024A136890
:100BF00043F480731360704700700040024B186824
:100C000000F4C060704700BF00700040B0F5007F86
:100C10000FD01F4B1B6803F4C063B3F5806F34D053
:100C20001B4A136823F4C06343F4806313600020FD
:100C30007047174B1B6803F4C063B3F5007F20D0E7
:100C4000134A136823F4C06343F400731360114B19
:100C50001B68322202FB03F30F4AA2FB03239B0C07
:100C6000013300E0013B0A4A526912F4806F01D05F
:100C7000002BF7D1064B5B6913F4806F03D1002082
:100C8000704700207047032070470020704700BF66
:100C9000007000400000002083DE1B43024A5368BE
:100CA00043F480635360704700700040024A536809
:100CB00043F40073536070470070004030B583B058
:100CC0000446204B9B6D13F0805F0BD0FFF796FF1F
:100CD000B0F5007F17D0802C1FD82DD0702C2DD0D0
:100CE00000211BE0174DAB6D43F08053AB65AB6D3E
:100CF00003F080530193019BFFF780FFAB6D23F05E
:100D00008053AB65E4E7802C03D9A02C03D90221E2
:100D100004E0002102E0012100E003210A4A1368F7
:100D200023F007030B431360136803F007038B42A0
:100D300006D1002003B030BD0221EFE70121EDE72D
:100D40000120F7E70010024000200240284A936883
:100D5000D26802F0030213F00C030AD00C2B06D069
:100D6000042B1FD0082B20D00020024610E0012ABF
:100D7000F6D11F4A126812F0080F0CD11C4AD2F8A3
:100D80009420C2F303221B4951F8222043B10020D2
:100D90000C2B0DD07047164A1268C2F30312F2E70B
:100DA0001046F5E714480022F2E714480022EFE766
:100DB0000F4BDB6803F00303022B16D0032B00D18B
:100DC0000E4A0B49CB68C3F302130133C868C0F362
:100DD000062002FB00F0B0FBF3F0CB68C3F34163E5
:100DE00001335B00B0FBF3F0D4E7034AE9E700BF4F
:100DF00000100240B84A00080024F40000127A00F3
:100E0000002800F02283F0B583B00446964B9D681D
:100E100005F00C05DE6806F00306036813F0100FFA
:100E20005AD0E5B10C2D18D0A369002B00F0BB807F
:100E30008D4A136843F001031360FFF7A7FC0746D0
:100E4000894B1B6813F0020F40F09A80FFF79EFC5D
:100E5000C01B0228F4D9032002E3012EE4D1824B07
:100E60001B6813F0020F03D0A369002B00F0EF8280
:100E7000206A7D4B1B6813F0080F5BD07A4B1B6810
:100E800003F0F00398425CD8774B1A6842F00802EE
:100E90001A601A6822F0F002216A0A431A605A683E
:100EA00022F47F42E16942EA01225A60002D60D0BB
:100EB000FFF74CFF6C4B9B68C3F303136B4AD35C87
:100EC00003F01F03D8406A4B18606A4B1868FFF79D
:100ED000D9FB002840F0C482236813F0010F00F012
:100EE0008180082D75D00C2D71D06368B3F5803FDB
:100EF00000F09780B3F5A02F00F099805A4B1A6844
:100F000022F480321A601A6822F480221A60636820
:100F1000002B00F09980FFF739FC0746524B1B6805
:100F200013F4003F5ED1FFF731FCC01B6428F5D9F4
:100F3000032095E24C4BD3F894301B0903F0F003E7
:100F4000A0E7FFF7BBFE002840F08382464B1A68FB
:100F500042F008021A601A6822F0F002216A0A437D
:100F60001A605A6822F47F42E16942EA01225A601B
:100F70009EE7206AFFF7A2FE002899D001206FE2C9
:100F8000394B1A6842F008021A601A6822F0F0021F
:100F9000216A0A431A605A6822F47F42E16942EAF0
:100FA00001225A6098E7304A136823F00103136066
:100FB000FFF7ECFB07462C4B1B6813F0020F8BD09E
:100FC000FFF7E4FBC01B0228F5D9032048E2032EFB
:100FD0008BD1254B1B6813F4003F03D06368002BB3
:100FE00000F03982236813F0020F58D0042D45D049
:100FF0000C2D41D0E368002B77D01B4A136843F4D3
:1010000080731360FFF7C2FB0646174B1B6813F48F
:10101000806F61D1FFF7BAFB801B0228F5D903204E
:101020001EE2114A136843F4803313606FE703F143
:101030008043A3F53C331A6842F480221A601A6890
:1010400042F480321A6062E7FFF7A0FB0746064BC6
:101050001B6813F4003FC5D0FFF798FBC01B642842
:10106000F5D90320FCE100BF00100240F04A00085F
:101070000000002008000020022EBBD1A74B1B68F7
:1010800013F4806F03D0E368002B00F0E681A34ADD
:10109000536823F0FE43216943EA016353602368E8
:1010A00013F0080F4CD063699BB39C4AD2F894307C
:1010B00043F00103C2F89430FFF768FB0646974BF4
:1010C000D3F8943013F0020F3AD1FFF75FFB801B87
:1010D0000228F4D90320C3E1904A536823F0FE4369
:1010E000216943EA01635360D9E78C4A136823F40A
:1010F00080731360FFF74AFB0646884B1B6813F4A6
:10110000806FCCD0FFF742FB801B0228F5D903206B
:10111000A6E1824AD2F8943023F00103C2F8943059
:10112000FFF734FB06467D4BD3F8943013F0020FE3
:1011300006D0FFF72BFB801B0228F4D903208FE198
:10114000236813F0040F7AD0744B9B6D13F0805F0B
:1011500036D1724B9A6D42F080529A659B6D03F0C6
:1011600080530193019B01266D4B1B6813F4807F14
:1011700028D0A368012B39D0052B3FD0674BD3F87B
:10118000902022F00102C3F89020D3F8902022F0A2
:101190000402C3F89020A368002B3DD0FFF7F6FAB5
:1011A00007465E4BD3F8903013F0020F46D1FFF79D
:1011B000EDFAC01B41F288339842F2D903204FE187
:1011C0000026D1E7564A136843F480731360FFF793
:1011D000DDFA0746524B1B6813F4807FC9D1FFF735
:1011E000D5FAC01B0228F5D9032039E14B4AD2F8C1
:1011F000903043F00103C2F89030CCE7474BD3F86E
:10120000902042F00402C3F89020D3F8902042F0DE
:101210000102C3F89020BEE7FFF7B8FA07463F4B3C
:10122000D3F8903013F0020F08D0FFF7AFFAC01BCD
:1012300041F288339842F2D9032011E1E6B92368DC
:1012400013F0200F35D0636AE3B1344AD2F89830F6
:1012500043F00103C2F89830FFF798FA06462F4B87
:10126000D3F8983013F0020F23D1FFF78FFA801BC9
:101270000228F4D90320F3E0284A936D23F0805329
:101280009365DCE7254AD2F8983023F00103C2F8D1
:101290009830FFF77BFA0646204BD3F8983013F0CE
:1012A000020F06D0FFF772FA801B0228F4D9032040
:1012B000D6E0A36A002B00F0D280022B17D00C2DB1
:1012C00000F0D480154A136823F080731360FFF791
:1012D0005DFA0446114B1B6813F0007F00F0AE80EE
:1012E000FFF754FA001B0228F4D90320B8E00B4B97
:1012F000DB6803F00301E26A914213D00C2D00F089
:10130000B180064B1B6813F0806F40F0AD80034B3B
:101310001B6813F0805F2FD00120A1E00010024075
:101320000070004003F07002216B0139B2EB011F25
:10133000E4D103F4FE42616BB2EB012FDED103F086
:101340007842A16BB2EBC16FD8D103F4C001E26B5C
:101350005208013AB1EB425FD0D103F0C063226C76
:101360005208013AB3EB426FC8D1414B1B6813F0EE
:10137000007F49D0002073E03D4A136823F080735A
:101380001360FFF703FA0546394B1B6813F0007F23
:1013900006D0FFF7FBF9401B0228F5D903205FE0D8
:1013A000334AD36833491940E36A206B013843EA72
:1013B0000013606B43EA0023E06B4008013843EA06
:1013C0004053206C4008013843EA4063A06B43EA75
:1013D000C0631943D160136843F080731360D3680E
:1013E00043F08073D360FFF7D1F90446204B1B68AC
:1013F00013F0007F06D1FFF7C9F9001B0228F5D9C9
:1014000003202DE000202BE0194B1A6842F0807277
:101410001A60DA6842F08072DA60FFF7B7F90446C2
:10142000134B1B6813F0007F06D1FFF7AFF9031BC6
:10143000022BF5D9032013E0002011E00C4AD168FB
:101440000D4B0B40D36000200AE0012070470120C3
:1014500006E0012004E0012002E0012000E000207D
:1014600003B0F0BD0120FBE70120F9E70120F7E719
:10147000001002408C809D01FCFFEEFE002800F071
:10148000AF8070B50D460446594B1B6803F0070347
:101490008B420BD2564A136823F007030B431360A9
:1014A000136803F007038B4240F09C80236813F01D
:1014B000020F0CD0A2684F4B9B6803F0F0039A42D6
:1014C00005D94C498B6823F0F0031A438A602368DE
:1014D00013F0010F39D06368032B09D0022B26D0FB
:1014E00063BB444A126812F0020F06D1012076E075
:1014F000404A126812F0007F76D03E498A6822F096
:10150000030213438B60FFF741F90646394B9B6892
:1015100003F00C036268B3EB820F16D0FFF736F9C5
:10152000801B41F288339842F0D9032057E0314ABA
:10153000126812F4003FE0D1012050E02D4A1268F9
:1015400012F4806FD9D1012049E0236813F0020F13
:101550000CD0A268274B9B6803F0F0039A4205D297
:1015600024498B6823F0F0031A438A60204B1B68E0
:1015700003F00703AB420AD91D4A136823F007039F
:101580002B431360136803F00703AB422ED123688B
:1015900013F0040F06D0174A936823F4E063E16860
:1015A0000B439360236813F0080F07D0114A936828
:1015B00023F46053216943EAC1039360FFF7C6FB3C
:1015C0000C4B9B68C3F303130B4AD35C03F01F035C
:1015D000D8400A4B18600A4B1868FFF753F870BDE3
:1015E000012070470120FAE70120F8E70120F6E723
:1015F0000020024000100240F04A000800000020D5
:1016000008000020014B1868704700BF0000002050
:1016100008B5FFF7F7FF054B9B68C3F30223044AA5
:10162000D35C03F01F03D84008BD00BF0010024088
:10163000E84A000808B5FFF7E5FF054B9B68C3F3D0
:10164000C223044AD35C03F01F03D84008BD00BF87
:1016500000100240E84A00080F2303600B4B9A6811
:1016600002F0030242609A6802F0F00282609A6817
:1016700002F4E062C2609B68DB0803F4E06303618C
:10168000034B1B6803F007030B6070470010024018
:1016900000200240F8B504460D46584BDB6813F0B5
:1016A000030F17D0554BDB6803F003030268934226
:1016B00001D0012616E0002A00F09E804F4BDB6827
:1016C000C3F3021301334268934201D0012609E0BB
:1016D00000261BE00368022B57D0032B5CD0012BA4
:1016E00002D001263046F8BD444A126812F0020FBB
:1016F0005ED04248C26822F073026168013943EA51
:1017000001131343C3600026002EEBD13B4A13683C
:1017100023F080631360FFF739F80746374B1B68E7
:1017200013F0006F05D0FFF731F8C31B022BF5D97A
:101730000326002ED6D1002D3CD130490B6923F071
:10174000784323F4FE43A068E268D20642EA00220E
:1017500013430B61294A136843F080631360FFF75A
:1017600015F80546254B1B6813F0006F05D1FFF7F0
:101770000DF8401B0228F5D90326002EB2D11F4ACE
:101780001369A1690B431361ACE71C4A126812F498
:10179000806FAED10126A5E7184A126812F4003F07
:1017A000A7D1164A126812F4802FA2D1012699E718
:1017B0000126A9E7012D0FD01048026922F0C0626E
:1017C00022F4FE42A16863695B08013B5B0643EAC1
:1017D00001231A430261BDE70848026922F4C002EE
:1017E00022F4FE42A16823695B08013B5B0543EAE2
:1017F00001231A430261ADE7012673E7001002409E
:10180000F8B504460D464F4BDB6813F0030F17D0B5
:101810004C4BDB6803F003030268934201D00126BE
:1018200016E0002A00F08C80464BDB68C3F30213FD
:1018300001334268934201D0012609E000261BE0F3
:101840000368022B57D0032B5CD0012B02D001265A
:101850003046F8BD3B4A126812F0020F5ED039489C
:10186000C26822F073026168013943EA011313432D
:10187000C3600026002EEBD1324A136823F0805358
:101880001360FEF783FF07462E4B1B6813F0005FC3
:1018900005D0FEF77BFFC31B022BF5D90326002ED4
:1018A000D6D1002D3CD127494B6923F0784323F44E
:1018B000FE43A068E268D20642EA002213434B616D
:1018C000204A136843F080531360FEF75FFF05461C
:1018D0001C4B1B6813F0005F05D1FEF757FF401B40
:1018E0000228F5D90326002EB2D1164A5369616940
:1018F0000B435361ACE7134A126812F4806FAED108
:101900000126A5E70F4A126812F4003FA7D10D4A3D
:10191000126812F4802FA2D1012699E70126A9E7C7
:101920000848426922F0C06222F4FE42A16823699D
:101930005B08013B5B0643EA01231A434261BFE7B0
:10194000012685E7001002402DE9F04182B00446EF
:10195000036813F4006F33D0836EB3F5000F1FD00C
:101960000CD823B3B3F5800F05D100212030FFF749
:1019700047FF064620E001273E4623E0B3F5400F2F
:101980000BD10026604AD2F8883023F44003A16EC0
:101990000B43C2F88830002714E001273E4611E0CF
:1019A000594AD36843F48033D3600026EAE7002124
:1019B0000430FFF76FFE0646002EE3D0374601E005
:1019C00000273E46236813F4805F30D0E36EB3F106
:1019D000007F1FD00DD81BB3B3F1807F06D100214B
:1019E00004F12000FFF70CFF064605E001273E4604
:1019F0001DE0B3F1407F0AD1C6B9434AD2F888301E
:101A000023F04073E16E0B43C2F888300FE00127EA
:101A10003E460CE03C4AD36843F48033D360EBE7A6
:101A20000021201DFFF736FE0646E5E7374623680E
:101A300013F4003F71D0344B9B6D13F0805F4ED197
:101A4000314B9A6D42F080529A659B6D03F0805342
:101A50000193019B4FF001082C4A136843F48073F3
:101A60001360FEF793FE0546284B1B6813F4807F36
:101A700005D1FEF78BFE401B0228F5D90326002E68
:101A800046D1214BD3F8903013F4407316D0D4F8DC
:101A900088209A4212D01C4AD2F8903023F4407326
:101AA000D2F8901041F48031C2F89010D2F8901022
:101AB00021F48031C2F89010C2F8903013F0010F79
:101AC00010D1002E40F035810F4AD2F8903023F427
:101AD0004073D4F888100B43C2F8903019E04FF0EF
:101AE0000008B9E7FEF752FE0546074BD3F89030E1
:101AF00013F0020FE5D1FEF749FE401B41F2883397
:101B00009842F2D90326DCE7001002400070004042
:101B10003746B8F1000F40F00E81236813F0010F33
:101B200008D0A44AD2F8883023F00303A16B0B43FA
:101B3000C2F88830236813F0020F08D09D4AD2F80B
:101B4000883023F00C03E16B0B43C2F88830236824
:101B500013F0040F08D0974AD2F8883023F03003EE
:101B6000216C0B43C2F88830236813F0080F08D0AB
:101B7000904AD2F8883023F0C003616C0B43C2F85E
:101B80008830236813F0100F08D08A4AD2F88830C2
:101B900023F44073A16C0B43C2F88830236813F020
:101BA000200F08D0834AD2F8883023F44063E16CD8
:101BB0000B43C2F88830236813F4007F08D07D4AB5
:101BC000D2F8883023F44023216E0B43C2F88830CA
:101BD000236813F4806F08D0764AD2F8883023F453
:101BE0004013616E0B43C2F88830236813F0400F36
:101BF00008D0704AD2F8883023F44053216D0B434B
:101C0000C2F88830236813F0800F08D0694AD2F8F0
:101C1000883023F44043616D0B43C2F88830236859
:101C200013F4807F08D0634AD2F8883023F440331D
:101C3000A16D0B43C2F88830236813F4801F08D0CD
:101C40005C4AD2F89C3023F00303E16D0B43C2F8E9
:101C50009C30236813F4005F0FD0564AD2F88830C6
:101C600023F04063216F0B43C2F88830236FB3F138
:101C7000006F66D0B3F1806F68D0236813F4002F33
:101C80000FD04C4AD2F8883023F04063616F0B4389
:101C9000C2F88830636FB3F1006F5FD0B3F1806F2B
:101CA00061D0236813F4802F0FD0424AD2F88830D5
:101CB00023F04063A16F0B43C2F88830A36FB3F1E8
:101CC000006F58D0B3F1806F5AD0236813F4804F5F
:101CD0000FD0384AD2F8883023F04053E16F0B43DD
:101CE000C2F88830E36FB3F1805F51D0B3F1005F89
:101CF00056D0236813F4004F09D02E4AD2F888300A
:101D000023F08043D4F880100B43C2F88830236856
:101D100013F4803F09D0274AD2F8883023F00043DB
:101D2000D4F884100B43C2F88830384602B0BDE8BE
:101D3000F0813746EDE61F4A936D23F0805393659B
:101D4000EBE6D36843F48013D36096E70121201DAE
:101D5000FFF7A0FC002890D007468EE7D36843F435
:101D60008013D3609DE70121201DFFF793FC00281D
:101D700097D0074695E7D36843F48013D360A4E770
:101D80000121201DFFF786FC00289ED007469CE716
:101D90000221201DFFF77EFC0028AAD00746A8E7F5
:101DA000022104F12000FFF72BFD0028A1D00746F7
:101DB0009FE700BF00100240024A136843F004038B
:101DC00013607047001002407047000090F83D30EB
:101DD000DBB2012B36D1022380F83D300268D36894
:101DE00043F00103D3600368194A93421CD0B3F156
:101DF000804F19D0A2F59432934215D002F580623B
:101E0000934211D002F5806293420DD002F59432D4
:101E1000934209D002F54062934205D01A6842F01D
:101E200001021A600020704799680A4A0A40062A8F
:101E30000AD0B2F5803F09D01A6842F001021A6058
:101E40000020704701207047002070470020704735
:101E5000002C014007000100704770477047704731
:101E600010B5044603681A6912F0020F11D0DA683F
:101E700012F0020F0DD06FF002021A6101230377F6
:101E800003689B6913F0030F79D0FFF7E6FF002387
:101E9000237723681A6912F0040F12D0DA6812F05F
:101EA000040F0ED06FF004021A6102232377236817
:101EB0009B6913F4407F68D02046FFF7CEFF0023D4
:101EC000237723681A6912F0080F12D0DA6812F02B
:101ED000080F0ED06FF008021A61042323772368DD
:101EE000DB6913F0030F57D02046FFF7B6FF00233E
:101EF000237723681A6912F0100F12D0DA6812F0F3
:101F0000100F0ED06FF010021A6108232377236898
:101F1000DB6913F4407F46D02046FFF79EFF002385
:101F2000237723681A6912F0010F03D0DA6812F0E0
:101F3000010F3FD123681A6912F0800F03D0DA68CD
:101F400012F0800F3DD123681A6912F4807F03D00C
:101F5000DA6812F0800F3BD123681A6912F0400F43
:101F600003D0DA6812F0400F39D123681A6912F0F1
:101F7000200F03D0DA6812F0200F37D110BDFFF721
:101F80006BFF2046FFF76AFF81E72046FFF764FFFB
:101F90002046FFF763FF92E72046FFF75DFF2046EC
:101FA000FFF75CFFA3E72046FFF756FF2046FFF749
:101FB00055FFB4E76FF001021A612046FEF7B8F949
:101FC000B8E76FF080021A61204600F0ACF8BAE77B
:101FD0006FF480721A61204600F0A6F8BCE76FF03B
:101FE00040021A612046FFF73AFFBEE76FF0200279
:101FF0001A61204600F096F8C0E700000368304AF6
:10200000904212D0B0F1804F0FD0A2F5943290429E
:102010000BD002F58062904207D002F580629042B8
:1020200003D002F59432904203D123F070034A6842
:102030001343234A90421ED0B0F1804F1BD0A2F52B
:102040009432904217D002F58062904213D002F58C
:10205000806290420FD002F5943290420BD002F58C
:102060004062904207D002F58062904203D002F5B0
:102070008062904203D123F44073CA68134323F073
:1020800080034A69134303608B68C3620B688362F1
:102090000B4B98420FD003F5006398420BD003F529
:1020A0004063984207D003F58063984203D003F55C
:1020B0008063984201D10B69036301234361704738
:1020C000002C014060B310B5044690F83D3013B3C6
:1020D000022384F83D30214651F8040BFFF78EFFB0
:1020E000012384F8483084F83E3084F83F3084F887
:1020F000403084F8413084F8423084F8433084F82A
:10210000443084F8453084F8463084F8473084F809
:102110003D30002010BD80F83C30FFF755FED7E77A
:1021200001207047704770477047000010B50446A3
:10213000016883680269134342691343C269134308
:1021400008688E4A02401A430A602268536823F4E2
:102150004053E1680B435360A1692268884B9A425F
:1021600001D0236A1943936823F430630B439360CF
:102170002368844A934210D0834A934221D0834AF1
:10218000934237D0824A93425CD0824A93426BD0CA
:102190007B4A93427DD010223AE002F55842D2F8B1
:1021A000882002F00302032A09D8DFE802F00204C3
:1021B000870601222CE004222AE0082228E01022CF
:1021C00026E002F5E632D2F8882002F00C020C2A52
:1021D0000ED8DFE802F0070D0D0D090D0D0D750D80
:1021E0000D0D0B00002213E0042211E008220FE085
:1021F00010220DE002F5E432D2F8882002F030021D
:10220000202A5FD01AD8002A5ED0102A5ED104227C
:102210005B498B4276D0E069B0F5004F00F0A380B7
:10222000082A00F20E81DFE812F0DD00F300DB0087
:102230000C01F6000C010C010C01F900302A47D109
:102240000822E5E702F5E232D2F8882002F0C00267
:10225000802A3FD004D8FAB3402A3FD10422D7E7DE
:10226000C02A3DD10822D3E702F5E032D2F8882017
:1022700002F44072B2F5007F34D005D8A2B3B2F5B3
:10228000807F33D10422C3E7B2F5407F30D10822EA
:10229000BEE702F5C832D2F8882002F44062B2F5F7
:1022A000006F27D005D83AB3B2F5806F26D104224B
:1022B000AEE7B2F5406F23D10822A9E70222A7E7D3
:1022C0000222A5E70222A3E70022A1E710229FE74E
:1022D00010229DE702229BE7002299E7102297E750
:1022E000102295E7022293E7002291E710228FE760
:1022F00010228DE702228BE7002289E7102287E770
:10230000102285E7082A00F28C80DFE802F0088AB4
:102310002A8A278A8A8A05004FF4004003E0FFF7E3
:1023200077F900287FD0626802EB420383427CD8B1
:10233000B0EB023F7BD8010E00025308C0184FF0EB
:10234000000341F10001FDF733FFA0F54072124B8D
:102350009A426ED82368D860002055E0FEF7F6FC5C
:10236000DFE70E48DFE7082A65D8DFE802F0193317
:102370000564366464641D00084815E0F369FFEFE6
:102380000080004000380140004400400048004008
:10239000004C004000500040FFFC0F000024F400FF
:1023A000FFF736F9002848D06268530803EB400372
:1023B000B3FBF2F3A3F110014FF6EF7291423ED856
:1023C0009AB222F00F02C3F3420313432268D36090
:1023D000002019E0FFF72EF9E4E7FEF7B7FCE1E78C
:1023E0001B4802E0FFF714F968B3636800EB530081
:1023F000B0FBF3F0A0F110024FF6EF739A4224D82D
:10240000236880B2D860002000236366A36610BDF5
:10241000FFF710F9E8E7FEF799FCE5E74FF4004015
:10242000E3E70120F0E70020EEE70120ECE70120E0
:10243000EAE70120E8E70120E6E70020E4E70120E1
:10244000E2E70120E0E70020DEE70120DCE700BF53
:102450000024F400436A13F0010F06D002685368A9
:1024600023F40033816A0B435360436A13F0020F75
:1024700006D00268536823F48033C16A0B4353606B
:10248000436A13F0040F06D00268536823F48023D4
:10249000016B0B435360436A13F0080F06D00268C8
:1024A000536823F40043416B0B435360436A13F0BA
:1024B000100F06D00268936823F48053816B0B439E
:1024C0009360436A13F0200F06D00268936823F4E8
:1024D0000053C16B0B439360436A13F0400F0AD063
:1024E0000268536823F48013016C0B435360036C40
:1024F000B3F5801F0BD0436A13F0800F06D002683B
:10250000536823F40023816C0B43536070470268C7
:10251000536823F4C003416C0B435360EBE72DE990
:10252000F84305460F4616469946DDF820802B688D
:10253000DC6937EA04040CBF01240024B44253D1FF
:10254000B8F1FF3FF3D0FEF721F9A0EB09004045B9
:102550002DD8B8F1000F2AD02B681A6812F0040F9A
:10256000E5D0DA6912F4006FE1D04FF400621A622C
:102570002A6852E8003F23F4D07342E80031002972
:10258000F6D12A6802F1080353E8003F23F0010363
:10259000083242E800310029F3D12023AB67EB6712
:1025A000C5F88030002385F8743003201DE02A68C8
:1025B00052E8003F23F4D07342E800310029F6D1FD
:1025C0002A6802F1080353E8003F23F001030832B0
:1025D00042E800310029F3D12023AB67EB670023E9
:1025E00085F87430032000E00020BDE8F88330B5A2
:1025F00083B004460023C0F88030FEF7C7F80546D4
:102600002268126812F0080F0DD123681B6813F0BE
:10261000040F16D12023A367E3670020206684F807
:10262000740003B030BD6FF07E4300930346002278
:102630004FF400112046FFF772FF0028E5D0032079
:10264000EFE76FF07E4300932B4600224FF48001AA
:102650002046FFF764FF0028DCD00320E1E768B3E1
:1026600010B50446836F03B32423A367226813685D
:1026700023F0010313602046FFF758FD012813D013
:10268000636ABBB92268536823F49043536022689D
:10269000936823F02A0393602268136843F00103D0
:1026A00013602046FFF7A3FF10BD80F87430FDF7DC
:1026B0002DFFD9E72046FFF7CDFEE3E70120704765
:1026C00082B000230193019B01330193019A0F4BC8
:1026D0009A4215D80369002BF5DA002301930369A8
:1026E00043F001030361019B01330193019A074BFE
:1026F0009A4208D8036913F0010FF4D1002000E0DA
:10270000032002B070470320FBE700BF400D030029
:1027100084B010B504460DF10C0C8CE80E00C368B3
:1027200043F04003C360FFF7CBFF0C9B3BB9A36BA7
:1027300043F48033A363BDE8104004B07047A36B3B
:1027400023F48033A363F6E7836823F001038360F7
:102750000020704782B000230193019B0133019355
:10276000019A0F4B9A4215D80369002BF5DA002322
:102770000193890141F020010161019B0133019323
:10278000019A074B9A4208D8036913F0200FF4D13D
:10279000002000E0032002B070470320FBE700BFE9
:1027A000400D030082B000230193019B013301938C
:1027B000019A0E4B9A4213D80369002BF5DA0023D5
:1027C000019310230361019B01330193019A074B8D
:1027D0009A4208D8036913F0100FF4D1002000E0EA
:1027E000032002B070470320FBE700BF400D030049
:1027F000D0F800381943C0F80018002070470000D6
:1028000084B02DE9F041044607A880E80E000023BB
:1028100006E003F1400204EB820200215160013323
:102820000E2BF6D9119F8FBBD4F8043843F0020366
:10283000C4F80438A36B23F40013A363236843F0A4
:1028400040032360236843F0800323600023C4F81F
:10285000003E04F50065D4F80038C4F800380321C0
:102860002046FFF7C5FF10212046FFF773FF804683
:1028700008B14FF001082046FFF794FF08B14FF070
:10288000010800232B616B61EB610FE0A36B43F444
:102890000013A363DAE7C3B94FF00060C2F8000980
:1028A00000220A614FF67F328A600133079999420C
:1028B00010D904EB431202F51061D2F80009002888
:1028C000E9DB0020C2F80009EAE74FF09040C2F8C7
:1028D0000009E5E700230AE0C3B14FF0904CC2F8CD
:1028E00000CB002202614FF67F32826001339942B1
:1028F00011D904EB431202F53060D2F8006B002EC0
:10290000EADB4FF0000CC2F800CBEAE74FF0006CB6
:10291000C2F800CBE5E72B6923F480732B61002319
:10292000A3616FF080436361A36943F01003A36167
:10293000A2690B4B1343A3610D9B1BB1A36943F029
:102940000803A361012F04D04046BDE8F04104B064
:102950007047A36943F0804343F00403A361F3E7A6
:1029600000383C80D0F8003E23F00303C0F8003E5E
:10297000D0F8043843F00203C0F804380020704750
:10298000406900F00100704738B50546C36823F080
:10299000C043C360012913D019BBC36843F080430F
:1029A000C36000240120FDF7F7FE01342846FFF73D
:1029B000E7FF08B1312CF5D9322C14D0002038BDF6
:1029C000C36843F00053C36000240120FDF7E4FE18
:1029D00001342846FFF7D4FF0128EDD0312CF4D97B
:1029E000EAE70120EBE70120E9E708B54FF0E02333
:1029F0001B6901F0CDFB012800D108BD00F0D2F920
:102A0000FBE70000EFF305832BB9064B186828B9E4
:102A100001221A6070476FF0050070474FF0FF30D9
:102A2000704700BFD00C0020EFF3058373B90A4B49
:102A30001B68012B0DD110B50024084BDC77064B29
:102A400002221A6001F002F9204610BD6FF0050065
:102A500070474FF0FF307047D00C002000ED00E0D1
:102A6000F0B587B000240594EFF3058474BB68B318
:102A700022B31568936903B918235C1E372C49D813
:102A8000546814F0010F47D156696EB14FEA960CA5
:102A900094682CB1D7685B2F02D9176907B1C6B902
:102AA0002CB14FF0FF340EE04FF0800CF0E7D4680B
:102AB0008CB9146994B14FF0FF3404E0154600243A
:102AC00018234FF0800C012C0AD0ACB1059807B048
:102AD000F0BD0124F7E74FF0FF34F4E70024F2E7FC
:102AE000146992680292019400930B46624629464B
:102AF00001F03EF80590E9E705AA019200930B4624
:102B00001FFA8CF2294601F06EF80128DED000236E
:102B10000593DBE70020DAE70020D8E708B5EFF3FC
:102B2000058333B908B9002008BD01F0F1F9002090
:102B3000FAE76FF00500F7E7034B0360034B0B6008
:102B400080231360704700BF740C0020740A0020BB
:102B5000034B0360034B0B604FF4807313607047AB
:102B6000180A00201806002000F1080343604FF007
:102B7000FF328260C360036100230360704700235B
:102B80000361704743684B609A688A60516099603E
:102B90000861036801330360704730B40D68B5F114
:102BA000FF3F11D000F108031C465B681A68AA4277
:102BB000FAD963684B6099608C6061600861036852
:102BC0000133036030BC70470469F2E70369416870
:102BD00082688A60416851605A68824206D0002249
:102BE00002611A68013A1A601868704782685A6070
:102BF000F5E7000082B0002301930D4B1B68B3F191
:102C0000FF3F08D04FF0500383F31188BFF36F8F5D
:102C1000BFF34F8FFEE74FF0500383F31188BFF3EC
:102C20006F8FBFF34F8F019B002BFCD002B070471A
:102C30000C00002008480068006880F308884FF006
:102C4000000080F3148862B661B6BFF34F8FBFF304
:102C50006F8F00DF00BF000008ED00E0DFF80C0020
:102C6000016841F4700101607047000088ED00E0E8
:102C70004FF0807340F8043C21F0010140F8081C3B
:102C8000054B40F80C3C40F8202C6FF0020340F854
:102C9000243C4438704700BFF52B000800000000BA
:102CA000074B19680868B0E8F04F80F30988BFF354
:102CB0006F8F4FF0000080F311887047AFF30080F2
:102CC000F01D00204FF0500383F31188BFF36F8F86
:102CD000BFF34F8F0B4A136801331360012B00D0F1
:102CE00070474FF0E023D3F8043D13F0FF0FF7D007
:102CF0004FF0500383F31188BFF36F8FBFF34F8FF3
:102D0000FEE700BF0C000020094B1B6843B94FF0E1
:102D1000500383F31188BFF36F8FBFF34F8FFEE72C
:102D2000013B034A13600BB983F31188704700BF5E
:102D30000C00002000000000000000000000000067
:102D4000EFF30980BFF36F8F154B1A681EF0100F59
:102D500008BF20ED108A20E9F04F10602DE909002E
:102D60004FF0500080F31188BFF34F8FBFF36F8F88
:102D700001F0F4F84FF0000080F3118809BC1968E5
:102D80000868B0E8F04F1EF0100F08BFB0EC108AD2
:102D900080F30988BFF36F8F704700BFAFF30080E7
:102DA000F01D002008B54FF0500383F31188BFF3E6
:102DB0006F8FBFF34F8F00F0A3FF28B14FF0E023D8
:102DC0004FF08052C3F8042D002383F3118808BD0F
:102DD0004FF0E022002313619361054B1B68054906
:102DE000A1FB03139B09013B536107231361704748
:102DF00000000020D34D62104FF0E023D3F8002DE7
:102E00003D4B9A421CD04FF0E023D3F8002D3B4BB2
:102E10009A421ED030B583B0394B1A78D2B20192A3
:102E2000FF221A701B78DBB28DF803309DF8033057
:102E300003F05003334A1370334B07221A601BE030
:102E40004FF0500383F31188BFF36F8FBFF34F8FA1
:102E5000FEE74FF0500383F31188BFF36F8FBFF38A
:102E60004F8FFEE7284A1368013B13609DF803303B
:102E70005B00DBB28DF803309DF8033013F0800F58
:102E8000F0D1214B1B68032B08D04FF0500383F384
:102E90001188BFF36F8FBFF34F8FFEE71B021A4AF3
:102EA000136003F4E0631360019BDBB2144A1370F8
:102EB0004FF0E024D4F8203D43F47003C4F8203DE3
:102EC000D4F8203D43F07043C4F8203DFFF780FF65
:102ED00000250E4B1D60FFF7C1FED4F8343F43F0D0
:102EE0004043C4F8343FFFF7A5FE01F037F8FFF781
:102EF00081FE284603B030BD71C20F4170C20F4140
:102F000000E400E0D80C0020D40C00200C000020CD
:102F1000EFF305830F2B0FD9114A9B5CDBB2114AEB
:102F200012789A4208D94FF0500383F31188BFF307
:102F30006F8FBFF34F8FFEE74FF0E023D3F80C3DC8
:102F400003F4E063084A1268934208D94FF0500333
:102F500083F31188BFF36F8FBFF34F8FFEE7704786
:102F6000F0E300E0D80C0020D40C0020134A12F04B
:102F7000070F1FD0D11D21F00701C1F53B630833B6
:102F800013440A460E480260002141601344083B86
:102F900023F007030B48036059601960991A5160C8
:102FA0001360094B1960094B1960094B4FF000423F
:102FB0001A60704740F6B833E4E700BFFC0C00200D
:102FC000F40C0020F00C0020E80C0020EC0C002099
:102FD000DC0C0020164B1A461B688342FBD3516859
:102FE00002EB010C844509D0416800EB010C6345FC
:102FF00009D00360904219D01060704740680144C6
:1030000051601046F0E710B40A4C2468A3420BD07C
:103010005B681944416013681B680360904200D0EC
:1030200010605DF8044B70470460F7E7704700BF1D
:10303000F40C0020F00C002038B5044600F052FEDD
:10304000384B1B68B3B1384B1B681C4250D1002C65
:1030500050D004F1080214F0070F02D022F007024A
:103060000832002A55D0314B1B68934253D3304964
:103070000C6804E0FFF77AFFE5E721461C46636829
:10308000934202D22368002BF7D1264B1B68A34240
:1030900043D00D68083523680B6063689B1A102BBA
:1030A00010D9A01810F0070F08D04FF0500383F389
:1030B0001188BFF36F8FBFF34F8FFEE743606260ED
:1030C000FFF788FF626819490B689B1A0B60194962
:1030D00009688B4201D217490B60134B1B681343DD
:1030E000636000232360144A13680133136002E015
:1030F000002500E0002500F08FFE15F0070F0ED030
:103100004FF0500383F31188BFF36F8FBFF34F8FDE
:10311000FEE70025EFE70025EDE70025EBE7284671
:1031200038BD00BFF00C0020DC0C0020EC0C0020AF
:10313000F40C0020E80C0020E40C0020002834D01F
:1031400038B50446A0F1080550F8043C174A126847
:10315000134208D14FF0500383F31188BFF36F8FF0
:10316000BFF34F8FFEE750F8081C41B14FF05003FA
:1031700083F31188BFF36F8FBFF34F8FFEE723EA0E
:10318000020340F8043C00F0ADFD54F8041C084A6A
:1031900013680B4413602846FFF71CFF054A1368A9
:1031A0000133136000F038FE38BD7047DC0C00209E
:1031B000EC0C0020E00C002010B50446FFF782FD67
:1031C000A26BE36B9A4204D00024FFF79DFD2046DA
:1031D00010BD0124F9E710B50446FFF773FDA36B9A
:1031E00023B90124FFF790FD204610BD0024F9E724
:1031F00070B504461546866B026C5AB903681BB15C
:1032000000200136A66370BD806800F0D1FF002366
:10321000A360F6E76DB9406801F092FA6368226C2A
:1032200013446360A268934219D3236863602846FD
:10323000E7E7C06801F084FAE368226C51429B1A08
:10324000E3602268934202D2A3680B44E360022D3C
:1032500001D00020D5E726B1013E0020D1E7284665
:10326000CFE70020CDE70346026C6AB110B50846EF
:10327000D9681144D9609C68A14201D31968D9600A
:10328000D96801F05DFA10BD704738B50546FFF703
:1032900019FD95F8454064B201E0013C64B2002C90
:1032A0000ADD6B6A43B105F1240000F0D7FE002867
:1032B000F3D000F067FFF0E7FF2385F84530FFF714
:1032C00023FDFFF7FFFC95F8444064B201E0013CA8
:1032D00064B2002C0ADD2B6943B105F1100000F047
:1032E000BDFE0028F3D000F04DFFF0E7FF2385F886
:1032F0004430FFF709FD38BD38B5E0B10D4604464E
:10330000FFF7E0FC2368E26B216C01FB0230A06058
:103310000020A0636360013A02FB0133E360FF23F6
:1033200084F8443084F84530FDB9236963B9FFF768
:10333000EBFC012038BD4FF0500383F31188BFF33D
:103340006F8FBFF34F8FFEE704F1100000F086FE91
:103350000028ECD04FF0E0234FF08052C3F8042D4A
:10336000BFF34F8FBFF36F8FE1E704F11000FFF75A
:10337000FBFB04F12400FFF7F7FBD8E738B51D4647
:10338000049C0B4649B92460E06323640121204674
:10339000FFF7B2FF84F84C5038BD2260F4E740B923
:1033A0004FF0500383F31188BFF36F8FBFF34F8F3C
:1033B000FEE710B584B01C46844653B192B189B97A
:1033C0004FF0500383F31188BFF36F8FBFF34F8F1C
:1033D000FEE74FF0500383F31188BFF36F8FBFF305
:1033E0004F8FFEE76AB150230393039B502B13D0FA
:1033F0004FF0500383F31188BFF36F8FBFF34F8FEC
:10340000FEE70029EFD04FF0500383F31188BFF39C
:103410006F8FBFF34F8FFEE7039B012384F8463085
:1034200000949DF818306046FFF7A8FF204604B0CE
:1034300010BDF0B585B0019288B10F461D46044617
:10344000B1B1022D20D1E36B012B1DD04FF0500301
:1034500083F31188BFF36F8FBFF34F8FFEE74FF0F9
:10346000500383F31188BFF36F8FBFF34F8FFEE7D5
:10347000036C002BE5D04FF0500383F31188BFF3AA
:103480006F8FBFF34F8FFEE700F082FE064658B9FC
:10349000019B002B48D04FF0500383F31188BFF3FA
:1034A0006F8FBFF34F8FFEE700263DE02A46394677
:1034B0002046FFF79DFE636A7BB948B14FF0E023D9
:1034C0004FF08052C3F8042DBFF34F8FBFF36F8FBF
:1034D000FFF71AFC012005B0F0BD04F1240000F054
:1034E000BDFD0028F4D04FF0E0234FF08052C3F828
:1034F000042DBFF34F8FBFF36F8FE9E7FFF704FC95
:103500000020E8E702A800F0EFFD012619E0002303
:1035100084F8443021E0002384F8453023E020463D
:10352000FFF7B3FE00F078FCFFF7CCFBA26BE36B78
:103530009A42BBD3022DB9D0019B002BDED0002EC6
:10354000E0D0FFF7E1FB00F0CDFBFFF7BBFB94F809
:10355000442052B2B2F1FF3FD9D094F8452052B284
:10356000B2F1FF3FD7D0FFF7CFFB01A902A800F0CF
:10357000C7FDD8B92046FFF71FFE0028CFD001991C
:1035800004F1100000F036FD2046FFF77EFE00F04B
:1035900043FC0028C8D14FF0E0234FF08052C3F81D
:1035A000042DBFF34F8FBFF36F8FBDE72046FFF7AA
:1035B0006CFE00F031FC00208DE72DE9F84390B15E
:1035C0000F4616461C460546B1B1022C20D1EB6BC6
:1035D000012B1DD04FF0500383F31188BFF36F8F81
:1035E000BFF34F8FFEE74FF0500383F31188BFF313
:1035F0006F8FBFF34F8FFEE7036C002BE5D04FF0CA
:10360000500383F31188BFF36F8FBFF34F8FFEE733
:10361000FFF77EFCEFF311884FF0500383F311881E
:10362000BFF36F8FBFF34F8FAA6BEB6B9A4206D33A
:10363000022C04D0002088F31188BDE8F88395F8A7
:1036400045904FFA89F9AB6B224639462846FFF779
:10365000CFFDB9F1FF3F06D009F101035BB285F858
:1036600045300120E7E76B6A0BB90120E3E705F17C
:10367000240000F0F3FC18B126B101203060DAE735
:103680000120D8E70120D6E7F0B585B0019290B1CE
:103690000F460446C1B100F07BFD064600BB019B0E
:1036A000002B5ED04FF0500383F31188BFF36F8F70
:1036B000BFF34F8FFEE74FF0500383F31188BFF342
:1036C0006F8FBFF34F8FFEE7036C002BE3D04FF0FB
:1036D000500383F31188BFF36F8FBFF34F8FFEE763
:1036E00000263EE039462046FFF7BDFD013DA563BB
:1036F000236923B9FFF708FB012005B0F0BD04F1F1
:10370000100000F0ABFC0028F4D04FF0E0234FF0A5
:103710008052C3F8042DBFF34F8FBFF36F8FE9E7DB
:10372000FFF7F2FA0020E8E702A800F0DDFC01262E
:1037300021E0002384F8443029E0002384F8453058
:103740002BE02046FFF7A1FD00F066FB09E02046D4
:10375000FFF79BFD00F060FB2046FFF73CFD0028D3
:103760003FD1FFF7AFFAA56B002DBBD1019B002B1A
:10377000D6D0002ED8D0FFF7C7FA00F0B3FAFFF783
:10378000A1FA94F844305BB2B3F1FF3FD1D094F882
:1037900045305BB2B3F1FF3FCFD0FFF7B5FA01A9D7
:1037A00002A800F0ADFC0028D1D12046FFF713FDA0
:1037B0000028C6D0019904F1240000F01BFC20462B
:1037C000FFF763FD00F028FB0028CAD14FF0E0238B
:1037D0004FF08052C3F8042DBFF34F8FBFF36F8FAC
:1037E000BFE7002089E700000023072B0CD8074A19
:1037F00052F833200AB10133F7E7044A42F8331094
:1038000002EBC30250607047704700BFB41800203D
:1038100070B504460D461646FFF754FA94F8443046
:103820005BB2B3F1FF3F0DD094F845305BB2B3F11A
:10383000FF3F0BD0FFF768FAA36B5BB12046FFF7A1
:1038400024FD70BD002384F84430EDE7002384F8A4
:103850004530EFE73246294604F1240000F0E2FB50
:10386000ECE70000084B1B681B6823B9074B4FF0BF
:10387000FF321A607047044B1B68DB68DB685A68CC
:10388000024B1A60704700BF64190020FC1800202A
:103890002DE9F04780460D4617469946089EDDF80B
:1038A00024A00A9C9200A521206B00F01CFF236B32
:1038B00007F18042013A03EB820727F00707A5B31F
:1038C0004FF0000CBCF10F0F09D815F80C3004EBC9
:1038D0000C0282F8343013B10CF1010CF2E7002332
:1038E00084F84330372E00D93726E662E664002597
:1038F0002565201DFFF743F904F11800FFF73FF994
:103900002461C6F13806A6616462656584F8585082
:103910004A4641463846FFF7ABF92060BAF1000F3E
:1039200001D0CAF80040BDE8F087002384F83430A5
:10393000D8E7000038B5002407E004EB84029300C8
:103940000E481844FFF710F90134372CF5D90C4D07
:103950002846FFF709F90B4C2046FFF705F90A48FE
:10396000FFF702F90948FFF7FFF80948FFF7FCF8ED
:10397000084B1D60084B1C6038BD00BF901900202B
:103980007C190020681900204C19002038190020EB
:1039900020190020641900206019002010B5044689
:1039A000FFF790F9224A136801331360214B1B681B
:1039B0005BB1214B1B686BB91E4B1B68DA6AE36A6B
:1039C0009A4207D81B4B1C6004E01A4B1C6013681A
:1039D000012B29D0194A1368013313606364E06A2C
:1039E000174B1B68984201D9154B186000EB8000FB
:1039F000211D144B03EB8000FFF7C4F8FFF784F997
:103A00000D4B1B687BB10B4B1B68DA6AE36A9A4269
:103A100009D24FF0E0234FF08052C3F8042DBFF3DA
:103A20004F8FBFF36F8F10BDFFF784FFD2E700BF4A
:103A30001C190020F01D0020101900200019002082
:103A4000141900209019002010B5044690F8593040
:103A500063B1012B11D0022B0ED04FF0500383F332
:103A60001188BFF36F8FBFF34F8FFEE7006BFFF737
:103A700065FB2046FFF762FB10BDFFF75FFBFBE72E
:103A80000F4B1B68D3B110B5FFF71CF90D4BDB686A
:103A9000DC68201DFFF79AF80B4A1368013B13609E
:103AA000074A1368013B1360FFF72EF92046FFF722
:103AB000CBFF034B1B68002BE6D110BD704700BF46
:103AC00034190020381900201C19002008B5FFF710
:103AD000D7FF074B1B68012BF9D94FF0E0234FF0BC
:103AE0008052C3F8042DBFF34F8FBFF36F8FEEE703
:103AF0009019002070B504460D46174B1E68174BF1
:103B000018680430FFF762F8B4F1FF3F0DD0344479
:103B1000124B1B685C60A64210D9114B18680F4B02
:103B200019680431FFF739F870BD002DEFD00B4B49
:103B3000196804310B48FFF725F8F5E70A4B1868B8
:103B4000064B19680431FFF728F8084B1B68A3429D
:103B5000EAD9064B1C60E7E718190020F01D002089
:103B6000601900202019002064190020FC18002092
:103B700030B587B00B9C7CB10C9DB5B15C2504952C
:103B8000049D5C2D1AD04FF0500383F31188BFF3CE
:103B90006F8FBFF34F8FFEE74FF0500383F3118811
:103BA000BFF36F8FBFF34F8FFEE74FF0500383F3E8
:103BB0001188BFF36F8FBFF34F8FFEE7049D0C9DFD
:103BC0002C63022485F8594000240394029505AC27
:103BD00001940A9C0094FFF75BFE0C98FFF7DEFE51
:103BE000059807B030BD2DE9F04385B007468846FB
:103BF00014461E469000FFF71FFA08B381465C206A
:103C0000FFF71AFA0546A8B1C0F83090002380F8F3
:103C10005930039302900D9B01930C9B0093334604
:103C2000224641463846FFF733FE2846FFF7B6FEE8
:103C3000012007E04846FFF781FA4FF0FF3001E02E
:103C40004FF0FF3005B0BDE8F083000010B588B03C
:103C500000240594069407AA06A905A8FEF76CFFA0
:103C6000059B0293069B019300942346079A1749EC
:103C70001748FFF77DFF174B1860C0B100F04CFBF1
:103C8000012815D14FF0500383F31188BFF36F8FD4
:103C9000BFF34F8F104B4FF0FF321A600F4B0122D2
:103CA0001A600F4B00221A60FFF7A6F803E000200D
:103CB000B0F1FF3F01D008B010BD4FF0500383F3C7
:103CC0001188BFF36F8FBFF34F8FFEE7004B0008E3
:103CD000CD3A0008F8180020FC1800201019002028
:103CE00018190020024A136801331360704700BF9F
:103CF000F4180020014B1868704700BF1819002005
:103D0000F8B53A4B1B68002B69D1394B1D6801355A
:103D10001D60C5B9374B1B681B6843B14FF050039A
:103D200083F31188BFF36F8FBFF34F8FFEE7314AE4
:103D30001168314B186810601960304A13680133FC
:103D40001360FFF78FFD2E4B1B68AB423DD9002758
:103D50002C4B1B68DB6A03EB83039A002A4B9B58AE
:103D6000012B00D90127294B1B68002B3CD00127D0
:103D70003AE001271F4B1B681B6843B31D4B1B68B0
:103D8000DB68DC6863689D4226D3261D3046FEF75B
:103D90001DFFA36A1BB104F11800FEF717FFE36AC9
:103DA0001B4A1268934201D9194A136003EB83033B
:103DB0009A00314614481044FEF7E4FEE26A114BC3
:103DC0001B68DB6A9A42D4D2D4E70027D2E70C4BB7
:103DD0004FF0FF321A60BBE7094A1360B8E70D4A9B
:103DE00013680133136000273846F8BDF41800202B
:103DF00018190020641900206019002004190020FF
:103E0000FC180020F01D0020901900200819002047
:103E1000141900200C19002038B5354B1B6843B924
:103E20004FF0500383F31188BFF36F8FBFF34F8FB1
:103E3000FEE7FEF747FF2E4B1A68013A1A601B682F
:103E4000002B4FD12B4B1B680BB900244BE00024F7
:103E5000294B1B681BB3284BDB68DC6804F1180096
:103E6000FEF7B4FE251D2846FEF7B0FEE06A234BA0
:103E70001B68984201D9214B186000EB800029464D
:103E80001F4B03EB8000FEF77DFEE26A1D4B1B68B3
:103E9000DB6A9A42DCD31C4B01221A60D8E70CB1D2
:103EA000FFF7E0FC194B1C6884B9174B1C68D4B1B0
:103EB0004FF0E0234FF08052C3F8042DBFF34F8F33
:103EC000BFF36F8F01240EE0013C07D0FFF718FF0E
:103ED0000028F9D00C4B01221A60F5E70B4B0022A9
:103EE0001A60E2E70024FEF70FFF204638BD00BF4E
:103EF000F41800201C1900204C190020141900206F
:103F000090190020F01D0020081900200C19002035
:103F100010B5A8B10446104B1B6843B14FF05003D5
:103F200083F31188BFF36F8FBFF34F8FFEE7FFF767
:103F3000D9FE00212046FFF7DDFDFFF76DFF48B9F0
:103F40004FF0E0234FF08052C3F8042DBFF34F8FA2
:103F5000BFF36F8F10BD00BFF4180020204B1B680B
:103F60001BB1204B01221A6070471E4B00221A60C1
:103F70001D4B1B6803EB83018A001C498A585AB900
:103F80000BB1013BF6E74FF0500383F31188BFF309
:103F90006F8FBFF34F8FFEE7084603EB83018A0064
:103FA000024451684968516003EB830C4FEA8C026C
:103FB0000832024491420BD003EB830291000B4A7A
:103FC0000A445268D1680A4A1160074A1360704770
:103FD000486862469100054A0A445060ECE700BF19
:103FE000F41800200819002014190020901900204E
:103FF000F01D002058B110B50C46094A116818315F
:10400000FEF7CBFD01212046FFF774FD10BD4FF0F8
:10401000500383F31188BFF36F8FBFF34F8FFEE719
:10402000F01D002038B570B10D4614460A4A1168DB
:104030001831FEF7A7FD0CB14FF0FF352146284699
:10404000FFF758FD38BD4FF0500383F31188BFF3DD
:104050006F8FBFF34F8FFEE7F01D002038B5C368A8
:10406000DC6824B304F118052846FEF7AFFD184BB1
:104070001B682BBB251D2846FEF7A8FDE06A154BE3
:104080001B68984201D9134B186000EB8000294649
:10409000114B03EB8000FEF775FDE26A0F4B1B68C6
:1040A000DB6A9A4211D901200D4B186038BD4FF0E0
:1040B000500383F31188BFF36F8FBFF34F8FFEE779
:1040C00029460848FEF75EFDE7E70020EEE700BF5F
:1040D000F41800201419002090190020F01D002071
:1040E000081900204C190020034B1B680360034B88
:1040F0001B684360704700BF041900201819002096
:10410000F8B5C8B10C460546F9B1FEF7DBFD1B4B0F
:1041100019686B68C81A2268B2F1FF3F26D0184EA2
:1041200036682F68B74201D08B4224D9824215D815
:104130000023236001241AE04FF0500383F3118819
:10414000BFF36F8FBFF34F8FFEE74FF0500383F342
:104150001188BFF36F8FBFF34F8FFEE75B1A1344D5
:1041600023602846FFF7C0FF002400E00024FEF78C
:10417000CBFD2046F8BD0124F9E700BF1819002047
:1041800004190020014B01221A6070470819002011
:10419000054B1B6833B1054B1B680BB10020704702
:1041A000022070470120704710190020F4180020E9
:1041B00000283BD038B504461E4B1B68834208D00C
:1041C0004FF0500383F31188BFF36F8FBFF34F8F0E
:1041D000FEE7036D43B94FF0500383F31188BFF33B
:1041E0006F8FBFF34F8FFEE7013B0365C16AC26C5F
:1041F00091421DD00BB1002038BD051D2846FEF7A9
:10420000E5FCE06CE062C0F13803A3610A4B1B6877
:10421000984201D9084B186000EB80002946074BF3
:1042200003EB8000FEF7AEFC0120E5E700207047BD
:104230000020E1E7F01D0020141900209019002053
:10424000064B1A6813682BB90123036023B9D3689E
:10425000186870470023F8E700207047F41E00201C
:1042600008B54160006191420CD8D21A83699A4224
:1042700001D3012008BD011D094B1868FEF78DFC14
:104280000020F7E79A4201D2994206D2011D054B60
:104290001868FEF782FC0020ECE70120EAE700BF87
:1042A000F01E0020F41E002030B583B0FEF70AFD9A
:1042B000114B1B681BB1FEF727FD03B030BD0F4D3E
:1042C0002846FEF751FC0E4C2046FEF74DFC0D4BE8
:1042D0001D600D4B1C60002300930C4B0C4A1021F9
:1042E0000A20FFF75CF8044B18600028E3D0094966
:1042F000FFF77AFADFE700BFEC1E00200C1F00205A
:10430000F81E0020F41E0020F01E0020F41D0020E6
:10431000441E0020084B000810B588B0FFF7C4FF0A
:10432000124B1B68CBB100240594069407AA06A97A
:1043300005A8FEF70DFC059B0293069B0193022343
:1043400000932346079A0A490A48FFF711FC0A4BD3
:10435000186010B1012008B010BD4FF0500383F376
:104360001188BFF36F8FBFF34F8FFEE7EC1E002065
:10437000104B00087D460008E81E0020B8B19C469E
:1043800003461848006858B300B585B00091019203
:10439000029305291CDCFFF7FBFE022810D0002346
:1043A0001A4669460F480068FFF743F815E04FF0DA
:1043B000500383F31188BFF36F8FBFF34F8FFEE776
:1043C0000023069A694607480068FFF732F804E0C0
:1043D000002362466946FFF7F0F805B05DF804FB7C
:1043E00000207047EC1E002070B582B01B4B1B688C
:1043F0001A6862B3DB681E68DC68251D2846FEF774
:10440000E5FB236A2046984794F8283013F0040F00
:10441000ECD0A36933449E4207D2636024612946ED
:104420000E4B1868FEF7B9FBE0E7002100910B4640
:1044300032462046FFF7A2FF0028D7D14FF05003A5
:1044400083F31188BFF36F8FBFF34F8FFEE7044AEA
:10445000106802490860136002B070BDF41E0020AD
:10446000F01E002038B50546FFF744FC0446074B14
:104470001B68834205D800232B60044B1C60204638
:1044800038BDFFF7B1FF01232B60F6E7E41E0020E3
:1044900070B582B006460D4617490968C968CC68F0
:1044A000201DFEF793FB94F828C01CF0040F08D1E0
:1044B0002CF0010C84F828C0236A2046984702B0EB
:1044C00070BDA16933462A4631442046FFF7C8FE35
:1044D0000028F1D0002100910B4632462046FFF71C
:1044E0004DFF0028E8D14FF0500383F31188BFF34C
:1044F0006F8FBFF34F8FFEE7F41E002070B582B0C0
:1045000006460C46FFF7EEFB01A8FFF7ABFF019B49
:1045100033BB0546E4B9B04213D22246711B124B9D
:104520001868FFF775F9FFF777FCD8B94FF0E0236B
:104530004FF08052C3F8042DBFF34F8FBFF36F8F3E
:1045400010E0FFF769FC29463046FFF7A1FF09E0BC
:10455000064A126812680AB90124DEE71C46DCE745
:10456000FFF75AFC02B070BDEC1E0020F01E0020C8
:1045700010B588B002E0049B002B0FDA002204A9DA
:104580003D4B1868FFF780F8002873D0049B002B80
:10459000F1DA07990698059B9847ECE7069C636952
:1045A00013B1201DFEF712FB03A8FFF75BFF049B6E
:1045B000092BE3D8DFE803F0050505303750050582
:1045C000303794F8283043F0010384F82830059BF5
:1045D000A169024619442046FFF742FE0028CDD0CB
:1045E000236A2046984794F8283013F0040FC5D06A
:1045F000A269002100910B46059802442046FFF76E
:10460000BDFE0028BAD14FF0500383F31188BFF3E9
:104610006F8FBFF34F8FFEE794F8283023F001032C
:1046200084F82830AAE794F8283043F0010384F88E
:1046300028300599A16131B1034602460144204664
:10464000FFF70EFE9AE74FF0500383F31188BFF394
:104650006F8FBFF34F8FFEE794F8283013F0020FEF
:1046600004D023F0010384F8283087E72046FEF7C2
:1046700065FD83E708B010BDEC1E002000B583B0D7
:1046800001A8FFF7DDFD0199FFF738FFFFF770FF85
:10469000F6E70000DFF834D0FCF752F80C480D497B
:1046A0000D4A002302E0D458C4500433C4188C428D
:1046B000F9D30A4A0A4C002301E013600432A242F3
:1046C000FBD300F019F8FBF7C9FEFEE70000052058
:1046D0000000002010000020304B000810000020D7
:1046E000201F0020FEE702440346934200D170479A
:1046F00003F8011BF9E7000070B50D4D0D4C641B6C
:10470000A4100026A64209D10B4D0C4C00F084F9F0
:10471000641BA4100026A64205D170BD55F8043BC9
:1047200098470136EEE755F8043B98470136F2E723
:10473000204B0008204B0008204B0008244B0008A9
:104740000A44914200F1FF3300D1704710B511F8CF
:10475000014B03F8014F9142F9D110BD2DE9F0470B
:10476000089D0C46002B4ED194468C458646B2FAE5
:1047700082F262D94AB1C2F12003914020FA03F3D8
:104780000CFA02FC194300FA02FE4FEA1C471FFA1A
:104790008CF6B1FBF7F44FEA1E4307FB141143EA12
:1047A000014304FB06F199420AD91CEB030304F10F
:1047B000FF3080F01381994240F21081023C634443
:1047C000591A1FFA8EF3B1FBF7F007FB101143EAF9
:1047D000014300FB06F69E420AD91CEB030300F1DD
:1047E000FF3180F0FD809E4240F2FA80634402383F
:1047F0009B1B40EA044000211DB1D3400022C5E9C3
:104800000032BDE8F0878B4205D90DB1C5E9000142
:1048100000210846F5E7B3FA83F1002946D1A34207
:1048200002D39042C0F0F180861A64EB03030120AA
:10483000002DE6D0C5E90063E3E7002A40F091804F
:10484000A1EB0C044FEA1C481FFA8CF70121B4FBC2
:10485000F8F64FEA1E4308FB164443EA044307FBFD
:1048600006F0984208D91CEB030306F1FF3402D28C
:10487000984200F2CE8026461C1A1FFA8EF3B4FB33
:10488000F8F008FB104443EA044300FB07F79F429B
:1048900008D91CEB030300F1FF3402D29F4200F25F
:1048A000B1802046DB1B40EA0640A5E7C1F12006A7
:1048B0008B4022FA06F71F4320FA06FC04FA01F3A4
:1048C00043EA0C03F44000FA01F8380C4FEA1349AC
:1048D000B4FBF0FE1FFA87FC00FB1E4449EA0444C7
:1048E0000EFB0CF9A14502FA01F20AD93C190EF1AE
:1048F000FF3A80F08580A14540F28280AEF1020E41
:104900003C44A4EB09041FFA83F9B4FBF0F300FB69
:10491000134449EA044403FB0CFCA44507D93C19A1
:1049200003F1FF3068D2A44566D9023B3C4443EA18
:104930000E40A0FB0293A4EB0C049C42CE469C4686
:1049400052D34FD055B1B8EB0E0364EB0C0404FA0C
:1049500006F6CB40CC401E43C5E900640021BDE80B
:10496000F087C2F1200320FA03F10CFA02FC24FACA
:1049700003F394400C434FEA1C4800FA02FE1FFA6E
:104980008CF7B3FBF8F008FB1031230C43EA01432A
:1049900000FB07F1994208D91CEB030300F1FF3635
:1049A0002CD299422AD9023863445B1AA4B2B3FBD1
:1049B000F8F108FB113344EA034401FB07F3A34277
:1049C00008D91CEB040401F1FF3613D2A34211D91C
:1049D00002396444E41A41EA004138E70446EFE64C
:1049E000084605E7C845ADD2B9EB020E63EB070CEC
:1049F0000138A7E73146EDE7034698E73046D4E7AC
:104A0000D6467EE7634402384CE70646234608460E
:104A10000EE7023E63442FE7F8B500BFF8BC08BCC0
:104A20009E467047F8B500BFF8BC08BC9E4670476C
:104A3000626C696E6B303200626C696E6B30310093
:104A400064656661756C745461736B00304A00086C
:104A50000000000000000000000000000000000056
:104A6000000200000800000000000000000000003C
:104A7000384A0008000000000000000000000000AC
:104A800000000000000200003000000000000000F4
:104A900000000000404A0008000000000000000084
:104AA00000000000000000000002000018000000EC
:104AB0000000000000000000A0860100400D03007F
:104AC000801A060000350C0040420F0080841E0052
:104AD00000093D0000127A000024F40000366E0147
:104AE0000048E801006CDC02000000000102030441
:104AF000000000000000000001020304060708098E
:104B000049444C4500000000546D72510000000003
:084B1000546D7220537663001E
:084B180044FCFF7F01000000D6
:084B200009020008000000007A
:084B2800E50100080000000097
:104B300000093D000100000010000000AAAAAAAA76
:040000050800469514
:00000001FF
